{
  "_format": "hh-sol-artifact-1",
  "contractName": "MusicAlbumCrowdfund",
  "sourceName": "contracts/MusicAlbumCrowdfund.sol",
  "abi": [
    {
      "inputs": [
        {
          "internalType": "address",
          "name": "fanTokenAddress",
          "type": "address"
        },
        {
          "internalType": "uint256",
          "name": "_rewardRate",
          "type": "uint256"
        }
      ],
      "stateMutability": "nonpayable",
      "type": "constructor"
    },
    {
      "inputs": [],
      "name": "campaignCount",
      "outputs": [
        {
          "internalType": "uint256",
          "name": "",
          "type": "uint256"
        }
      ],
      "stateMutability": "view",
      "type": "function"
    },
    {
      "inputs": [
        {
          "internalType": "uint256",
          "name": "",
          "type": "uint256"
        }
      ],
      "name": "campaigns",
      "outputs": [
        {
          "internalType": "address payable",
          "name": "creator",
          "type": "address"
        },
        {
          "internalType": "string",
          "name": "title",
          "type": "string"
        },
        {
          "internalType": "uint256",
          "name": "goalWei",
          "type": "uint256"
        },
        {
          "internalType": "uint256",
          "name": "deadline",
          "type": "uint256"
        },
        {
          "internalType": "uint256",
          "name": "totalRaised",
          "type": "uint256"
        },
        {
          "internalType": "bool",
          "name": "finalized",
          "type": "bool"
        },
        {
          "internalType": "bool",
          "name": "successful",
          "type": "bool"
        }
      ],
      "stateMutability": "view",
      "type": "function"
    },
    {
      "inputs": [
        {
          "internalType": "uint256",
          "name": "_campaignId",
          "type": "uint256"
        }
      ],
      "name": "contribute",
      "outputs": [],
      "stateMutability": "payable",
      "type": "function"
    },
    {
      "inputs": [
        {
          "internalType": "uint256",
          "name": "",
          "type": "uint256"
        },
        {
          "internalType": "address",
          "name": "",
          "type": "address"
        }
      ],
      "name": "contributions",
      "outputs": [
        {
          "internalType": "uint256",
          "name": "",
          "type": "uint256"
        }
      ],
      "stateMutability": "view",
      "type": "function"
    },
    {
      "inputs": [
        {
          "internalType": "string",
          "name": "_title",
          "type": "string"
        },
        {
          "internalType": "uint256",
          "name": "_goalWei",
          "type": "uint256"
        },
        {
          "internalType": "uint256",
          "name": "_durationSeconds",
          "type": "uint256"
        }
      ],
      "name": "createCampaign",
      "outputs": [],
      "stateMutability": "nonpayable",
      "type": "function"
    },
    {
      "inputs": [],
      "name": "fanToken",
      "outputs": [
        {
          "internalType": "contract FanToken",
          "name": "",
          "type": "address"
        }
      ],
      "stateMutability": "view",
      "type": "function"
    },
    {
      "inputs": [
        {
          "internalType": "uint256",
          "name": "_campaignId",
          "type": "uint256"
        }
      ],
      "name": "finalizeCampaign",
      "outputs": [],
      "stateMutability": "nonpayable",
      "type": "function"
    },
    {
      "inputs": [
        {
          "internalType": "uint256",
          "name": "_campaignId",
          "type": "uint256"
        }
      ],
      "name": "getCampaign",
      "outputs": [
        {
          "internalType": "address",
          "name": "creator",
          "type": "address"
        },
        {
          "internalType": "string",
          "name": "title",
          "type": "string"
        },
        {
          "internalType": "uint256",
          "name": "goalWei",
          "type": "uint256"
        },
        {
          "internalType": "uint256",
          "name": "deadline",
          "type": "uint256"
        },
        {
          "internalType": "uint256",
          "name": "totalRaised",
          "type": "uint256"
        },
        {
          "internalType": "bool",
          "name": "finalized",
          "type": "bool"
        },
        {
          "internalType": "bool",
          "name": "successful",
          "type": "bool"
        }
      ],
      "stateMutability": "view",
      "type": "function"
    },
    {
      "inputs": [
        {
          "internalType": "uint256",
          "name": "_campaignId",
          "type": "uint256"
        }
      ],
      "name": "refund",
      "outputs": [],
      "stateMutability": "nonpayable",
      "type": "function"
    },
    {
      "inputs": [],
      "name": "rewardRate",
      "outputs": [
        {
          "internalType": "uint256",
          "name": "",
          "type": "uint256"
        }
      ],
      "stateMutability": "view",
      "type": "function"
    },
    {
      "inputs": [
        {
          "internalType": "uint256",
          "name": "_campaignId",
          "type": "uint256"
        }
      ],
      "name": "withdraw",
      "outputs": [],
      "stateMutability": "nonpayable",
      "type": "function"
    }
  ],
  "bytecode": "0x608060405234801561001057600080fd5b50604051611dc9380380611dc983398181016040528101906100329190610119565b816000806101000a81548173ffffffffffffffffffffffffffffffffffffffff021916908373ffffffffffffffffffffffffffffffffffffffff160217905550806001819055505050610159565b600080fd5b600073ffffffffffffffffffffffffffffffffffffffff82169050919050565b60006100b082610085565b9050919050565b6100c0816100a5565b81146100cb57600080fd5b50565b6000815190506100dd816100b7565b92915050565b6000819050919050565b6100f6816100e3565b811461010157600080fd5b50565b600081519050610113816100ed565b92915050565b600080604083850312156101305761012f610080565b5b600061013e858286016100ce565b925050602061014f85828601610104565b9150509250929050565b611c61806101686000396000f3fe60806040526004361061009c5760003560e01c80635598f8cc116100645780635598f8cc1461019c5780636b5ca27d146101df5780637274e30d1461020857806375daa3de146102335780637b0a47ee1461025e578063c1cbbca7146102895761009c565b8063141961bc146100a1578063278ecde1146100e45780632e1a7d4d1461010d5780633020580b146101365780633d891f591461015f575b600080fd5b3480156100ad57600080fd5b506100c860048036038101906100c39190610e63565b6102a5565b6040516100db9796959493929190610f8b565b60405180910390f35b3480156100f057600080fd5b5061010b60048036038101906101069190610e63565b6103a9565b005b34801561011957600080fd5b50610134600480360381019061012f9190610e63565b61059d565b005b34801561014257600080fd5b5061015d60048036038101906101589190611136565b61076b565b005b34801561016b57600080fd5b50610186600480360381019061018191906111e3565b61093c565b6040516101939190611223565b60405180910390f35b3480156101a857600080fd5b506101c360048036038101906101be9190610e63565b610961565b6040516101d6979695949392919061124d565b60405180910390f35b3480156101eb57600080fd5b5061020660048036038101906102019190610e63565b610b07565b005b34801561021457600080fd5b5061021d610c05565b60405161022a9190611223565b60405180910390f35b34801561023f57600080fd5b50610248610c0b565b6040516102559190611322565b60405180910390f35b34801561026a57600080fd5b50610273610c2f565b6040516102809190611223565b60405180910390f35b6102a3600480360381019061029e9190610e63565b610c35565b005b60036020528060005260406000206000915090508060000160009054906101000a900473ffffffffffffffffffffffffffffffffffffffff16908060010180546102ee9061136c565b80601f016020809104026020016040519081016040528092919081815260200182805461031a9061136c565b80156103675780601f1061033c57610100808354040283529160200191610367565b820191906000526020600020905b81548152906001019060200180831161034a57829003601f168201915b5050505050908060020154908060030154908060040154908060050160009054906101000a900460ff16908060050160019054906101000a900460ff16905087565b60006003600083815260200190815260200160002090508060050160009054906101000a900460ff16610411576040517f08c379a0000000000000000000000000000000000000000000000000000000008152600401610408906113e9565b60405180910390fd5b8060050160019054906101000a900460ff1615610463576040517f08c379a000000000000000000000000000000000000000000000000000000000815260040161045a90611455565b60405180910390fd5b60006004600084815260200190815260200160002060003373ffffffffffffffffffffffffffffffffffffffff1673ffffffffffffffffffffffffffffffffffffffff168152602001908152602001600020549050600081116104fb576040517f08c379a00000000000000000000000000000000000000000000000000000000081526004016104f2906114c1565b60405180910390fd5b60006004600085815260200190815260200160002060003373ffffffffffffffffffffffffffffffffffffffff1673ffffffffffffffffffffffffffffffffffffffff168152602001908152602001600020819055503373ffffffffffffffffffffffffffffffffffffffff166108fc829081150290604051600060405180830381858888f19350505050158015610597573d6000803e3d6000fd5b50505050565b60006003600083815260200190815260200160002090508060050160009054906101000a900460ff16610605576040517f08c379a00000000000000000000000000000000000000000000000000000000081526004016105fc906113e9565b60405180910390fd5b8060050160019054906101000a900460ff16610656576040517f08c379a000000000000000000000000000000000000000000000000000000000815260040161064d9061152d565b60405180910390fd5b8060000160009054906101000a900473ffffffffffffffffffffffffffffffffffffffff1673ffffffffffffffffffffffffffffffffffffffff163373ffffffffffffffffffffffffffffffffffffffff16146106e8576040517f08c379a00000000000000000000000000000000000000000000000000000000081526004016106df90611599565b60405180910390fd5b600081600401549050600082600401819055508160000160009054906101000a900473ffffffffffffffffffffffffffffffffffffffff1673ffffffffffffffffffffffffffffffffffffffff166108fc829081150290604051600060405180830381858888f19350505050158015610765573d6000803e3d6000fd5b50505050565b600082116107ae576040517f08c379a00000000000000000000000000000000000000000000000000000000081526004016107a590611605565b60405180910390fd5b600081116107f1576040517f08c379a00000000000000000000000000000000000000000000000000000000081526004016107e890611671565b60405180910390fd5b60026000815480929190610804906116c0565b91905055506040518060e001604052803373ffffffffffffffffffffffffffffffffffffffff16815260200184815260200183815260200182426108489190611708565b8152602001600081526020016000151581526020016000151581525060036000600254815260200190815260200160002060008201518160000160006101000a81548173ffffffffffffffffffffffffffffffffffffffff021916908373ffffffffffffffffffffffffffffffffffffffff16021790555060208201518160010190816108d591906118de565b5060408201518160020155606082015181600301556080820151816004015560a08201518160050160006101000a81548160ff02191690831515021790555060c08201518160050160016101000a81548160ff021916908315150217905550905050505050565b6004602052816000526040600020602052806000526040600020600091509150505481565b60006060600080600080600080600360008a81526020019081526020016000206040518060e00160405290816000820160009054906101000a900473ffffffffffffffffffffffffffffffffffffffff1673ffffffffffffffffffffffffffffffffffffffff1673ffffffffffffffffffffffffffffffffffffffff1681526020016001820180546109f29061136c565b80601f0160208091040260200160405190810160405280929190818152602001828054610a1e9061136c565b8015610a6b5780601f10610a4057610100808354040283529160200191610a6b565b820191906000526020600020905b815481529060010190602001808311610a4e57829003601f168201915b505050505081526020016002820154815260200160038201548152602001600482015481526020016005820160009054906101000a900460ff161515151581526020016005820160019054906101000a900460ff1615151515815250509050806000015181602001518260400151836060015184608001518560a001518660c00151975097509750975097509750975050919395979092949650565b60006003600083815260200190815260200160002090508060030154421015610b65576040517f08c379a0000000000000000000000000000000000000000000000000000000008152600401610b5c906119fc565b60405180910390fd5b8060050160009054906101000a900460ff1615610bb7576040517f08c379a0000000000000000000000000000000000000000000000000000000008152600401610bae90611a68565b60405180910390fd5b60018160050160006101000a81548160ff0219169083151502179055508060020154816004015410610c015760018160050160016101000a81548160ff0219169083151502179055505b5050565b60025481565b60008054906101000a900473ffffffffffffffffffffffffffffffffffffffff1681565b60015481565b600060036000838152602001908152602001600020905080600301544210610c92576040517f08c379a0000000000000000000000000000000000000000000000000000000008152600401610c8990611ad4565b60405180910390fd5b60003411610cd5576040517f08c379a0000000000000000000000000000000000000000000000000000000008152600401610ccc90611b40565b60405180910390fd5b34816004016000828254610ce99190611708565b92505081905550346004600084815260200190815260200160002060003373ffffffffffffffffffffffffffffffffffffffff1673ffffffffffffffffffffffffffffffffffffffff1681526020019081526020016000206000828254610d509190611708565b925050819055506000670de0b6b3a76400008060015434610d719190611b60565b610d7b9190611b60565b610d859190611bd1565b905060008054906101000a900473ffffffffffffffffffffffffffffffffffffffff1673ffffffffffffffffffffffffffffffffffffffff166340c10f1933836040518363ffffffff1660e01b8152600401610de2929190611c02565b600060405180830381600087803b158015610dfc57600080fd5b505af1158015610e10573d6000803e3d6000fd5b50505050505050565b6000604051905090565b600080fd5b600080fd5b6000819050919050565b610e4081610e2d565b8114610e4b57600080fd5b50565b600081359050610e5d81610e37565b92915050565b600060208284031215610e7957610e78610e23565b5b6000610e8784828501610e4e565b91505092915050565b600073ffffffffffffffffffffffffffffffffffffffff82169050919050565b6000610ebb82610e90565b9050919050565b610ecb81610eb0565b82525050565b600081519050919050565b600082825260208201905092915050565b60005b83811015610f0b578082015181840152602081019050610ef0565b60008484015250505050565b6000601f19601f8301169050919050565b6000610f3382610ed1565b610f3d8185610edc565b9350610f4d818560208601610eed565b610f5681610f17565b840191505092915050565b610f6a81610e2d565b82525050565b60008115159050919050565b610f8581610f70565b82525050565b600060e082019050610fa0600083018a610ec2565b8181036020830152610fb28189610f28565b9050610fc16040830188610f61565b610fce6060830187610f61565b610fdb6080830186610f61565b610fe860a0830185610f7c565b610ff560c0830184610f7c565b98975050505050505050565b600080fd5b600080fd5b7f4e487b7100000000000000000000000000000000000000000000000000000000600052604160045260246000fd5b61104382610f17565b810181811067ffffffffffffffff821117156110625761106161100b565b5b80604052505050565b6000611075610e19565b9050611081828261103a565b919050565b600067ffffffffffffffff8211156110a1576110a061100b565b5b6110aa82610f17565b9050602081019050919050565b82818337600083830152505050565b60006110d96110d484611086565b61106b565b9050828152602081018484840111156110f5576110f4611006565b5b6111008482856110b7565b509392505050565b600082601f83011261111d5761111c611001565b5b813561112d8482602086016110c6565b91505092915050565b60008060006060848603121561114f5761114e610e23565b5b600084013567ffffffffffffffff81111561116d5761116c610e28565b5b61117986828701611108565b935050602061118a86828701610e4e565b925050604061119b86828701610e4e565b9150509250925092565b60006111b082610e90565b9050919050565b6111c0816111a5565b81146111cb57600080fd5b50565b6000813590506111dd816111b7565b92915050565b600080604083850312156111fa576111f9610e23565b5b600061120885828601610e4e565b9250506020611219858286016111ce565b9150509250929050565b60006020820190506112386000830184610f61565b92915050565b611247816111a5565b82525050565b600060e082019050611262600083018a61123e565b81810360208301526112748189610f28565b90506112836040830188610f61565b6112906060830187610f61565b61129d6080830186610f61565b6112aa60a0830185610f7c565b6112b760c0830184610f7c565b98975050505050505050565b6000819050919050565b60006112e86112e36112de84610e90565b6112c3565b610e90565b9050919050565b60006112fa826112cd565b9050919050565b600061130c826112ef565b9050919050565b61131c81611301565b82525050565b60006020820190506113376000830184611313565b92915050565b7f4e487b7100000000000000000000000000000000000000000000000000000000600052602260045260246000fd5b6000600282049050600182168061138457607f821691505b6020821081036113975761139661133d565b5b50919050565b7f4e6f742066696e616c697a656400000000000000000000000000000000000000600082015250565b60006113d3600d83610edc565b91506113de8261139d565b602082019050919050565b60006020820190508181036000830152611402816113c6565b9050919050565b7f43616d706169676e207375636365737366756c00000000000000000000000000600082015250565b600061143f601383610edc565b915061144a82611409565b602082019050919050565b6000602082019050818103600083015261146e81611432565b9050919050565b7f4e6f7468696e6720746f20726566756e64000000000000000000000000000000600082015250565b60006114ab601183610edc565b91506114b682611475565b602082019050919050565b600060208201905081810360008301526114da8161149e565b9050919050565b7f43616d706169676e206661696c65640000000000000000000000000000000000600082015250565b6000611517600f83610edc565b9150611522826114e1565b602082019050919050565b600060208201905081810360008301526115468161150a565b9050919050565b7f4e6f742063616d706169676e2063726561746f72000000000000000000000000600082015250565b6000611583601483610edc565b915061158e8261154d565b602082019050919050565b600060208201905081810360008301526115b281611576565b9050919050565b7f476f616c206d7573742062652067726561746572207468616e20300000000000600082015250565b60006115ef601b83610edc565b91506115fa826115b9565b602082019050919050565b6000602082019050818103600083015261161e816115e2565b9050919050565b7f4475726174696f6e206d7573742062652067726561746572207468616e203000600082015250565b600061165b601f83610edc565b915061166682611625565b602082019050919050565b6000602082019050818103600083015261168a8161164e565b9050919050565b7f4e487b7100000000000000000000000000000000000000000000000000000000600052601160045260246000fd5b60006116cb82610e2d565b91507fffffffffffffffffffffffffffffffffffffffffffffffffffffffffffffffff82036116fd576116fc611691565b5b600182019050919050565b600061171382610e2d565b915061171e83610e2d565b925082820190508082111561173657611735611691565b5b92915050565b60008190508160005260206000209050919050565b60006020601f8301049050919050565b600082821b905092915050565b60006008830261179e7fffffffffffffffffffffffffffffffffffffffffffffffffffffffffffffffff82611761565b6117a88683611761565b95508019841693508086168417925050509392505050565b60006117db6117d66117d184610e2d565b6112c3565b610e2d565b9050919050565b6000819050919050565b6117f5836117c0565b611809611801826117e2565b84845461176e565b825550505050565b600090565b61181e611811565b6118298184846117ec565b505050565b5b8181101561184d57611842600082611816565b60018101905061182f565b5050565b601f821115611892576118638161173c565b61186c84611751565b8101602085101561187b578190505b61188f61188785611751565b83018261182e565b50505b505050565b600082821c905092915050565b60006118b560001984600802611897565b1980831691505092915050565b60006118ce83836118a4565b9150826002028217905092915050565b6118e782610ed1565b67ffffffffffffffff811115611900576118ff61100b565b5b61190a825461136c565b611915828285611851565b600060209050601f8311600181146119485760008415611936578287015190505b61194085826118c2565b8655506119a8565b601f1984166119568661173c565b60005b8281101561197e57848901518255600182019150602085019450602081019050611959565b8683101561199b5784890151611997601f8916826118a4565b8355505b6001600288020188555050505b505050505050565b7f43616d706169676e207374696c6c206163746976650000000000000000000000600082015250565b60006119e6601583610edc565b91506119f1826119b0565b602082019050919050565b60006020820190508181036000830152611a15816119d9565b9050919050565b7f416c72656164792066696e616c697a6564000000000000000000000000000000600082015250565b6000611a52601183610edc565b9150611a5d82611a1c565b602082019050919050565b60006020820190508181036000830152611a8181611a45565b9050919050565b7f43616d706169676e20656e646564000000000000000000000000000000000000600082015250565b6000611abe600e83610edc565b9150611ac982611a88565b602082019050919050565b60006020820190508181036000830152611aed81611ab1565b9050919050565b7f4d7573742073656e642045544800000000000000000000000000000000000000600082015250565b6000611b2a600d83610edc565b9150611b3582611af4565b602082019050919050565b60006020820190508181036000830152611b5981611b1d565b9050919050565b6000611b6b82610e2d565b9150611b7683610e2d565b9250828202611b8481610e2d565b91508282048414831517611b9b57611b9a611691565b5b5092915050565b7f4e487b7100000000000000000000000000000000000000000000000000000000600052601260045260246000fd5b6000611bdc82610e2d565b9150611be783610e2d565b925082611bf757611bf6611ba2565b5b828204905092915050565b6000604082019050611c17600083018561123e565b611c246020830184610f61565b939250505056fea2646970667358221220640a8ec3575142039673f63661eba5756dc64e1f635cfe5147a40bda15b90f0f64736f6c634300081c0033",
  "linkReferences": {},
  "deployedLinkReferences": {}
}